:101ED10042001E0000C18042000400FF42002200B7
:101EE10000420020000041000381C1015000063F73
:101EF100065B4F666D7D077F6F777C395E79714830
:0C1F010000160001020304050607C103DE
:10209300758E80439850758BE0758DFE438E40C2DC
:0C20A30098C299D28ED2ACD2AFD2BC222F
:101F4A00E4F5937594FFF5957596FF759D80F5BD3B
:101F5A0075BC8FF597C288C28A438E805389F0C2B6
:101F6A008DD28C122093C202F580C2B4D2A9D2AF0C
:031F7A00C2A322DD
:080003002003FDD2038F9922B6
:0300230002201A9E
:10201A00C0E0C083C082309808C298900002E59957
:0F202A00F0309904C299C203D082D083D0E03243
:101A5100900028EEF0A3EFF0AB05AA04900024E07B
:101A610004F0E0B40802E4F0E4F580900024E0FF23
:101A71002416F582E43400F583E0F5A0EFB4080004
:101A81004003021B18901A8DF8282873021AA50228
:101A91001AB3021AC1021ACF021AD9021AE6021A9D
:101AA100F3021B00900028E0FEA3E0FF7C037DE829
:101AB100802E900028E0FEA3E0FF7C007D64802062
:101AC100900028E0FEA3E0FF7C007D0A80129000D8
:101AD10028E0FEA3E0FF802B7C037DE8AF03AE028C
:101AE100121CB5801E7C007D64AF03AE02121CB5D2
:101AF10080117C007D0AAF03AE02121CB58004AEDA
:101B010002AF037C007D0A121CB574062DF58274A8
:081B1100003CF583E0F58022A1
:082113007F367EC7DEFEDFFC13
:01211B0022A1
:0E20F80000007F057E347DC3DDFEDEFCDFFAD6
:0121060022B6
:0420C9007FB87E0B53
:1020CD00D3EF9400EE9400400B7D72DDFEEF1F7098
:0420DD00EF1E80EC86
:0120E10022DC
:10000E0075BCEF00000000E5BC30E4FB53BCEFAF65
:01001E00BD24
:01001F0022BE
:101FF80012000EEFF4601812211312000EEFF460B5
:102008000EEF54E0FF780508800103D8FDFF227F1A
:0120180007C0
:0120190022A4
:0C210700300008D202C374F49FF58C2253
:10183200121FF8EF64077003021A04AD07EF640782
:101842006005121FF880F6E4FFFE122107EDFF90FB
:101852000004EEF0A3EFF0120003900021E004F088
:101862007006900020E004F0ED1470030219AA142F
:10187200607424FE700302194F146003021A04906C
:101882000000E024FEFFA3E0FD121E8F900003EF94
:10189200F0700C74F2F0900000E024FEF08032E46C
:1018A200900026F0A3F0900026E0FEA3E0FFC39490
:1018B20003EE648094805019200103122107122044
:1018C200C9900027E004F070DD900026E004F0806B
:1018D200D5900025E0B41F05E4F0021A049000251B
:1018E200E004F0021A04900000E02402FFA3E0FDED
:1018F200121E8F900003EFF0700C74F3F090000052
:10190200E02402F08032E4900026F0A3F09000265A
:10191200E0FEA3E0FFC39403EE648094805019209C
:1019220001031221071220C9900027E004F070DDA4
:10193200900026E004F080D5900025E07006741F28
:10194200F0021A04900025E014F0021A049000003C
:10195200E0FFA3E024FEFD121E8F900003EFF07063
:101962000C74F4F0900001E024FEF08032E4900068
:1019720026F0A3F0900026E0FEA3E0FFC39403EE5E
:101982006480948050192001031221071220C9900B
:101992000027E004F070DD900026E004F080D5908E
:1019A2000025E025E0F0805A900000E0FFA3E0244B
:1019B20002FD121E8F900003EFF0700C74F1F09094
:1019C2000001E02402F08032E4900026F0A3F090BF
:1019D2000026E0FEA3E0FFC39403EE6480948050EF
:1019E200192001031221071220C9900027E004F0F8
:1019F20070DD900026E004F080D5900025E0FFC362
:101A020013F0900000E0643C703CA3E0B47E37E445
:101A1200900026F0A3F0900026E0FEA3E0FFC3941E
:101A22000AEE6480948050171221077F887E131279
:101A320020CDE004F070DF900026E004F080D79023
:0F1A42000001E02402F0900025E0F5800220F87A
:03000B00021B19BC
:101B1900C0E0C0F0C083C082C0D075D000C000C092
:101B290002C003C004C005C006C007300204B2B435
:101B39008002C2B490001FE004F0700690001EE01D
:101B490004F090001EE0B4010EA3E0B4BC09C20287
:101B590090001EE4F0A3F0900023E004F0700690DA
:101B69000022E004F0900022E0FEA3E0FFC3940A03
:101B7900EE94004022D2A320010575800080063032
:101B890001037580FFC3EF940AEE9400402490008E
:101B990022E4F0A3F0801BC2A3200105900020805D
:101BA9000630010E900004E0FEA3E0FFE4FDFC1204
:101BB9001A51D007D006D005D004D003D002D000E6
:0B1BC900D0D0D082D083D0F0D0E0322A
:101E2B00121F4A121DAC7F057E001220E27FFF12AB
:101E3B0020AFE4F5807F05FE1221079000007402AD
:101E4B00F0E4A3F0C201200110122075900000E015
:101E5B00FFA3E0FD121BD48008300105E4FF122024
:101E6B00AF20B30C7F327E001220CD20B302B20024
:101E7B0020B20C7F327E001220CD20B202B20112B2
:041E8B00183280C2C7
:1000260000060AFE0AC600E000F000F80000000024
:100036000000FE7DBBC7EFEFEFEFEFEFEFC7BB7D35
:10004600FE000000000000000000000000000000AC
:10005600000000000000000000000000000000009A
:10006600000000000000000000000000000000008A
:100076000000000000000000000000000000000872
:100086000CFEFE0C082060FEFE6020000000784892
:10009600FE82BABA82BABA82BABA82BABA82FE0004
:1000A600000000000000000000000000000000004A
:1000B600000000010101010101010101010101012D
:1000C600000000000000000000000000000000002A
:1000D600000000000000000000000000000000001A
:1000E600000000000000000000000000000000000A
:1000F60000000000000000000000000000000000FA
:1001060000000000000000000000000000000000E9
:1001160000000000000000000000000000000000D9
:1001260000000000000000000000000000000000C9
:100136000000000000000000000000000000FEFFBC
:10014600030303030303030303FFFF0000FEFF0390
:100156000303030303030303FFFE00000000C0C004
:10016600C000000000FEFF030303030303030303B1
:10017600FFFE0000FEFF030303030303030303FF65
:10018600FE0000000000000000000000000000006B
:100196000000000000000000000000000000000059
:1001A6000000000000000000000000000000000049
:1001B6000000000000000000000000000000FFFF3B
:1001C600000000000000000000FFFF0000FFFF0C21
:1001D6000C0C0C0C0C0C0C0CFFFF00000000E1E1F9
:1001E600E100000000FFFF0000000000000000002A
:1001F600FFFF0000FFFF0C0C0C0C0C0C0C0C0CFF92
:10020600FF000000000000000000000000000000E9
:1002160000000000000000000000000000000000D8
:1002260000000000000000000000000000000000C8
:1002360000000000000000000000000000000F1F8A
:100246001818181818181818181F0F00000F1F185C
:1002560018181818181818181F0F000000000000AA
:1002660000000000000F1F18181818181818181882
:100276001F0F00000F1F1818181818181818181F25
:100286000F00000000000000000000000000000059
:100296000000000000000000000000000000000058
:1002A6000000000000000000000000000000000048
:1002B6000000000000000000000000000000000038
:1002C6000000000000E2928A8600007C8282827C26
:1002D60000FE008292AAC60000C0C0007C82828214
:1002E6007C0000020202FE0000C0C0007C82828206
:1002F6007C0000FE0000000000000000000000007E
:1003060000000000000000000000000000000000E7
:1003160000000000000000000000000000000000D7
:100326000024A42E24E4242EA424000000F84A4C21
:1003360048F8484C4AF800000000000000000000A1
:1003460000000000000000000000000000000000A7
:100356000000000000000000000000000000000097
:100366000000000000000000000000000000000087
:100376000000000000000000000000000000000077
:10038600000000000000000000000000C020101067
:10039600101020C00000C0201010101020C0000057
:1003A60000120A07027F02070A120000000B0A0A5F
:1003B6000A7F0A0A0A0B0000000000000000000085
:1003C6000000000000000000000000000000000027
:1003D6000000000000000000000000000000000017
:1003E6000000000000000000000000000000000007
:1003F60000000000000000000000000000000000F7
:100406000000000000000000000000001F20404027
:100416004050205F80001F2040404050205F8000F9
:100426000100060018002000C00000037E818181C3
:100436007E0000FF00000000000000000000000039
:1004460000000000000000000000000000000000A6
:100456000000000000000000000000000000000096
:100466000000000000000000000000000000000086
:100476000000000000000000000000000000000076
:100486000000000000000000000000000000000066
:100496000000000000000000000000000000000056
:1004A6000000000000000000000000007E81818145
:1004B6007E000000000000000000000000000000B8
:1004C6000000000000000000000000000000000026
:1004D6000000000000000000000000000000000016
:1004E6000000000000000000000000000000000006
:1004F60000000000000000000000000000000000F6
:100826000000000000000000000000000000CCCC2A
:10083600CCCC0C0CCCCC0C0CCCCC0C0C3C3C0C0C12
:100846003C3C0C0C3C3C0C0CCCCC0C0CCCCC3C3CC2
:10085600CCCC0C0C3C3CFCFCFCFCFCFC3C3C0C0CF2
:10086600CCCC0C0CCCCCCCCC0C0CCCCCCCCC3C3CE2
:100876003C3C0C0C3C3C0C0CFCFC0C0CCCCC0C0C92
:10088600CCCC3C3C0C0C3C3C0C0CCCCC0C0CCCCC62
:100896000C0CCCCCCCCCFCFC0C0CCCCC0C0C3C3CD2
:1008A6000C0C3C3C0C0C3C3CFCFC00000000FFFF2C
:1008B600CCCC0000F3F30303CFCFC3C3CCCC0303EC
:1008C6003333FCFC3333C0C00C0CCFCF0000CCCC90
:1008D600030330303333C0C033330000F3F3F0F09A
:1008E600C3C3F3F3C0C00C0CC3C3F3F33030F3F34C
:1008F600C0C03333CCCC0303F3F33030CCCC03038A
:10090600303033333030C3C3333330303333C0C089
:10091600CFCF0000CCCC30300C0CF0F00F0FF0F045
:1009260033330C0CC3C30C0CFFFF00000000FFFFA9
:100936000000F3F30000CCCCF0F03C3C0C0CCFCF25
:100946000000CCCC0C0CCCCC0303F0F03333CCCC75
:10095600C0C0CFCF0C0CCCCC0303F3F30000333371
:1009660030303F3FC0C0CCCC3C3C00003C3CC0C01B
:100976000C0CCCCCFCFC0000CCCC0C0C3030FCFCC1
:100986003333F0F0030330300C0CCFCF0303CCCC61
:100996003030FCFCF0F0C3C30C0CC0C00C0CCCCC4B
:1009A6003333C0C00C0CC3C3FFFF00000000FFFFC1
:1009B6000000CFCF3030CFCF0000F3F330300C0C37
:1009C6003F3F0C0CC0C00C0CC3C3CCCC00003C3C5D
:1009D60030303C3C0303CCCC0C0CCCCC0303CCCC4D
:1009E60033330303F0F0CCCC0303F0F0FFFF3030D9
:1009F6003C3CC0C00C0C3F3FCCCCC0C03333C0C065
:100A06000C0CCCCCC3C33C3C0303CFCFC3C30C0CF0
:100A1600C0C0CCCC0303F3F3FCFC3030CFCF0303D0
:100A260030303333C0C00C0CFFFF00000000FFFF66
:100A36003C3C0000CCCC333303033030C3C33333E8
:100A460000003333C3C30C0C3030CFCF0000333338
:100A5600F3F30303F3F3000033330C0CF0F003035A
:100A66003333C0C00C0CCCCCC3C3CCCCC0C0CCCCB4
:100A760003033030C3C30C0CF0F00F0F30300C0CF6
:100A8600C0C00C0C30300C0CC3C3FCFC0C0C30305A
:100A9600CFCFC0C00C0C3030CCCCC0C00C0C30302A
:100AA6000F0F30303F3FC0C0FFFF00000000FFFFC8
:100AB6000303CCCCF3F3C0C033330303CFCF3333BC
:100AC60000003333C3C30C0CC3C30C0C3030C3C398
:100AD6000C0C30303F3FC0C00F0FC3C3F3F30C0CF8
:100AE600CFCF3030CCCC0000CCCCCCCC30300F0FBC
:100AF600F0F003033030C3C30F0F3F3F0C0C33330A
:100B0600C3C330300303CCCCF0F00C0CC0C00F0FC5
:100B1600F3F3C0C033330000F3F3CCCC000033331F
:100B2600C3C33333C3C33030FFFF00000000FFFFF1
:100B36000C0CC0C00F0F30300303CCCC00003F3F7D
:100B4600C0C03333F0F00303CFCF33330303303069
:100B56003C3CCFCF0303CCCC0000CCCCF0F00C0C4B
:100B660030300C0C30300F0F3030030330300F0FA5
:100B760030300C0CC3C33C3C0000CFCF3030CFCF5D
:100B8600C0C0F3F30000CCCCF0F0C3C33C3C303023
:100B9600CCCCC3C30F0FCCCC00003333CFCF000077
:100BA600CCCC0C0CFCFCC0C0FFFF000000003F3F9B
:100BB6003C3C30303F3F3333303033333F3F3030CF
:100BC6003C3C3C3C303033333C3C30303F3F3030B3
:100BD6003F3F3030333330303C3C30303C3C3030BB
:100BE600333333333C3C33333333303033333C3CB1
:100BF600333330303C3C333330303C3C30303C3C9B
:100C060030303C3C333330303333303033333030B4
:100C16003C3C30303C3C3333303033333C3C3C3C62
:100C2600333330303C3C3030333300000000CCCC22
:100C3600CCCC0C0CCCCC0C0CCCCC0C0C3C3C0C0C0E
:100C46003C3C0C0C3C3C0C0CCCCC0C0CCCCC3C3CBE
:100C5600CCCC0C0C3C3CFCFCFCFCFCFC3C3C0C0CEE
:100C6600CCCC0C0CCCCCCCCC0C0CCCCCCCCC3C3CDE
:100C76003C3C0C0C3C3C0C0CFCFC0C0CCCCC0C0C8E
:100C8600CCCC3C3C0C0C3C3C0C0CCCCC0C0CCCCC5E
:100C96000C0CCCCCCCCCFCFC0C0CCCCC0C0C3C3CCE
:100CA6000C0C3C3C0C0C3C3CFCFC00000000FFFF28
:100CB600CCCC0000F3F30303CFCFC3C3CCCC0303E8
:100CC6003333FCFC3333C0C00C0CCFCF0000CCCC8C
:100CD600030330303333C0C033330000F3F3F0F096
:100CE600C3C3F3F3C0C00C0CC3C3F3F33030F3F348
:100CF600C0C03333CCCC0303F3F33030CCCC030386
:100D0600303033333030C3C3333330303333C0C085
:100D1600CFCF0000CCCC30300C0CF0F00F0FF0F041
:100D260033330C0CC3C30C0CFFFF00000000FFFFA5
:100D36000000F3F30000CCCCF0F03C3C0C0CCFCF21
:100D46000000CCCC0C0CCCCC0303F0F03333CCCC71
:100D5600C0C0CFCF0C0CCCCC0303F3F3000033336D
:100D660030303F3FC0C0CCCC3C3C00003C3CC0C017
:100D76000C0CCCCCFCFC0000CCCC0C0C3030FCFCBD
:100D86003333F0F0030330300C0CCFCF0303CCCC5D
:100D96003030FCFCF0F0C3C30C0CC0C00C0CCCCC47
:100DA6003333C0C00C0CC3C3FFFF00000000FFFFBD
:100DB6000000CFCF3030CFCF0000F3F330300C0C33
:100DC6003F3F0C0CC0C00C0CC3C3CCCC00003C3C59
:100DD60030303C3C0303CCCC0C0CCCCC0303CCCC49
:100DE60033330303F0F0CCCC0303F0F0FFFF3030D5
:100DF6003C3CC0C00C0C3F3FCCCCC0C03333C0C061
:100E06000C0CCCCCC3C33C3C0303CFCFC3C30C0CEC
:100E1600C0C0CCCC0303F3F3FCFC3030CFCF0303CC
:100E260030303333C0C00C0CFFFF00000000FFFF62
:100E36003C3C0000CCCC333303033030C3C33333E4
:100E460000003333C3C30C0C3030CFCF0000333334
:100E5600F3F30303F3F3000033330C0CF0F0030356
:100E66003333C0C00C0CCCCCC3C3CCCCC0C0CCCCB0
:100E760003033030C3C30C0CF0F00F0F30300C0CF2
:100E8600C0C00C0C30300C0CC3C3FCFC0C0C303056
:100E9600CFCFC0C00C0C3030CCCCC0C00C0C303026
:100EA6000F0F30303F3FC0C0FFFF00000000FFFFC4
:100EB6000303CCCCF3F3C0C033330303CFCF3333B8
:100EC60000003333C3C30C0CC3C30C0C3030C3C394
:100ED6000C0C30303F3FC0C00F0FC3C3F3F30C0CF4
:100EE600CFCF3030CCCC0000CCCCCCCC30300F0FB8
:100EF600F0F003033030C3C30F0F3F3F0C0C333306
:100F0600C3C330300303CCCCF0F00C0CC0C00F0FC1
:100F1600F3F3C0C033330000F3F3CCCC000033331B
:100F2600C3C33333C3C33030FFFF00000000FFFFED
:100F36000C0CC0C00F0F30300303CCCC00003F3F79
:100F4600C0C03333F0F00303CFCF33330303303065
:100F56003C3CCFCF0303CCCC0000CCCCF0F00C0C47
:100F660030300C0C30300F0F3030030330300F0FA1
:100F760030300C0CC3C33C3C0000CFCF3030CFCF59
:100F8600C0C0F3F30000CCCCF0F0C3C33C3C30301F
:100F9600CCCCC3C30F0FCCCC00003333CFCF000073
:100FA600CCCC0C0CFCFCC0C0FFFF000000003F3F97
:100FB6003C3C30303F3F3333303033333F3F3030CB
:100FC6003C3C3C3C303033333C3C30303F3F3030AF
:100FD6003F3F3030333330303C3C30303C3C3030B7
:100FE600333333333C3C33333333303033333C3CAD
:100FF600333330303C3C333330303C3C30303C3C97
:1010060030303C3C333330303333303033333030B0
:101016003C3C30303C3C3333303033333C3C3C3C5E
:10102600333330303C3C303033330000F3F30303CA
:10103600F3F303033F3F33330303333333333333A2
:10104600333333333333333333333333333333336A
:10105600333333333333333333333333333333335A
:10106600333333333333333333333333333333334A
:10107600333333333333333333333333333333333A
:10108600333333333333333333333333333333332A
:10109600333333333333333333333333333333331A
:1010A60033333333333333333333FFFFFFFF03033A
:1010B600FFFF0303FFFFC3C3C3C3C3C3C3C3C3C38A
:1010C600C3C3C3C3C3C3C3C30303C3C3C3C3FFFFF2
:1010D600C0C0C3C3C3C3C3C30303C3C3FFFF333308
:1010E6000303F3F3030333333333F3F30303FFFF52
:1010F6000303333333333333FFFF333333330303E2
:1011060033333333FFFF0303FFFFC3C30303C3C3F9
:10111600C3C3F3F3C3C3CFCF0303CFCF0303FFFF91
:1011260003030303CFCF03030303FFFFFFFF000007
:10113600FFFF0000F3F330303030303030303030E5
:1011460000003030303030303030303030303C3CE1
:10115600303030303030303030303030F3F33333FD
:101166003333333333333333333333333030FCFCBD
:10117600C0C00303CFCF0303F3F33333F3F300000D
:10118600F3F33333FFFF0000FFFF30303030F0F071
:101196000000FCFC3030FFFF3030FFFF3030FFFF37
:1011A60000000000FFFF00000000FFFFFFFF00003F
:1011B600FFFF0000FFFF3333F3F33333F3F3303035
:1011C60033333F3F303033333333333333333333D7
:1011D6003333333333330303333333333333333339
:1011E60030303333333333333333F3F33333FFFFB7
:1011F600303030303F3F3030FFFF30303C3CF0F095
:1012060033333030FFFF0000FFFF00000000CFCF78
:1012160000003F3F0000CFCFC0C0FCFC0000FFFF36
:1012260000000000FFFF00000000FFFFFFFF0000BE
:10123600FFFF0000FFFFC0C0FCFC0000FFFF3333D0
:101246003333333333330303CFCF0000F3F30303D6
:101256003333FFFFC3C3C3C3C3C3CFCF0303C3C368
:10126600C3C3C3C3C3C3FFFF0000CFCF0000FFFF4C
:10127600C3C3C0C0CFCF0303F3F3C0C00000FFFF5A
:10128600000000003F3F00003F3F03030000F3F370
:10129600C3C3F3F30303FFFF00003F3F0000FFFF5C
:1012A600303030303F3F00003030FFFFFFFF00009E
:1012B600CFCF0000FFFF00003F3F00003F3F303030
:1012C60033333333333333333F3F333333333333D0
:1012D600303033330000303030303333303030305C
:1012E600303030303030FFFF333333330000FFFF10
:1012F6000C0C0C0CFCFC00003F3F0C0C0C0CFFFF14
:1013060000000C0CFFFF0000CFCFCCCCCCCCCFCF55
:10131600CCCCCCCC0C0CCFCFCCCCFFFF0C0CFFFF35
:1013260000000000FFFF00000000FFFFFFFF0000BD
:10133600FFFF0000FFFF03033F3F0303F3F33333D5
:10134600333333333333333333333030333333336D
:101356003333333333333333333333333333333357
:101366003333333333333333333333330303F3F327
:10137600303030303C3C30303333030333333F3F7F
:1013860000000000FFFF0C0C0F0F0C0C0C0C0C0CDB
:101396000C0C00000C0C0C0C0C0C0C0C0C0CCFCF19
:1013A6000C0C0C0C0F0F00000C0CFFFFFFFFC0C055
:1013B600FFFFC0C0FFFFC0C0C3C3C3C3C3C3C3C313
:1013C600C3C3C3C3C3C3C3C3C3C3C3C3C3C3C3C3E7
:1013D600C3C3C3C3C3C3C3C3C3C3C3C3C3C3C3C3D7
:1013E600C3C3C3C3C3C3C3C3C3C3C3C3C3C3C3C3C7
:1013F600C3C3C3C3C3C3C3C3C3C3C3C3C3C3C3C3B7
:10140600C3C3C3C3F3F3C3C3C3C3C3C3C3C3C3C346
:10141600C3C3C3C3C3C3C3C3C3C3C3C3C3C3C3C396
:10142600C3C3C3C3C3C3C3C3C3C3CFCFF3F333332E
:1014360033333333333333330303333333333333D6
:101446003333333333333F3F33330303FFFF030376
:101456000303F3F3C3C3C3C3C3C3C3C3C3C3C3C376
:10146600C3C3C3C3C3C3CFCFC3C30303CFCF030316
:10147600FFFF3333F3F333330303F3F33333F3F37E
:1014860003033F3F333333333333333333330303CE
:10149600FFFF3333333303033333333333333333DE
:1014A60033333333333333333333FFFFFFFF3333D6
:1014B600333333333333333333333333303003035C
:1014C600333333333F3F0303CFCF0303FFFF000024
:1014D6000303FFFFCCCCCCCC0C0CC0C0CCCCCFCF04
:1014E600C0C0CCCC0C0CFFFF00000000FFFF0000CA
:1014F600FCFC0000FCFC00000C0CFFFF30303C3C08
:101506000000FFFF333333333333303003033333D9
:10151600F3F3333333330303333333333333333375
:101526003030F3F3030333333333FFFFFFFF33333B
:1015360033333333333333333333333330300303DB
:101546003333F3F303030303FFFF00003F3F0000C1
:101556000000FFFF0C0C0C0C0C0C3C3C0C0C0F0F91
:101566000C0C0C0C0C0C0C0C0C0C0C0CFFFF0000E7
:10157600FFFF0303FFFFC3C30303CFCF0303CFCF95
:1015860003033F3F333333330000F3F30303F3F333
:101596003333333333333333333333333333333315
:1015A60033333333333333330303FFFFFFFF333335
:1015B600F3F33333F3F33333333333330303333355
:1015C60033333333333330303F3F30303F3F3030C7
:1015D6003030FFFF30303333333333333333333349
:1015E60033333333F3F3333333333333333330304B
:1015F600FFFF0000F3F300000000FFFF0303FFFFFF
:101606000000FFFF00000303FFFF03030303FFFFC8
:10161600333333333333030333333333F3F30303D4
:1016260033333333333333333333FFFFFFFF0C0CA2
:101636003C3C0000FCFC0C0C00000C0C0C0C0C0CD4
:101646003F3F0C0C0C0C0C0C0C0C0C0C0C0C0C0C6E
:101656000C0CFCFC00000C0C0C0C0C0C0C0CFCFC1C
:101666000C0C0C0CFFFF0C0C00000C0CCCCC0C0C66
:10167600FFFF0000FFFF00000000FFFF00003F3FEC
:101686000000FFFF0000C0C0FFFF0000C0C0FFFF5A
:101696003333F3F3333303033F3F0303F3F33030C2
:1016A600F3F30303F3F333330303FFFFFFFF333394
:1016B60033333333333333333333333330303333FA
:1016C60033333333333333333333333333333333E4
:1016D60003033F3F33333333303033333333333322
:1016E60030303333333333333333333333333030D0
:1016F600FFFF33333333303033333F3F3333303010
:1017060033333F3F30303030FCFC303030303C3CFF
:10171600303033333030F3F33F3F30303F3F3030FB
:10172600333330303F3F30303030FFFFFFFFCCCC1B
:10173600CCCCCCCC0C0CFCFCCCCCCCCCCCCCCCCC03
:10174600CCCCCCCCCCCCCCCC0C0CFCFCCCCCCCCCF3
:101756000000FCFCCCCC0C0CFFFFCCCC0C0CCCCC95
:10176600CCCCFCFC0C0CC0C0CCCCCCCC0C0C0C0CEB
:10177600CFCFCCCCCCCCC0C0CCCCCCCCCCCCCCCCB5
:101786000C0CCFCFCCCCCCCCFFFFCCCCCCCCC0C0BF
:10179600CCCCCCCCCCCCCCCC0C0CCCCCCCCCCCCC03
:1017A600CCCCCCCCCCCCCCCCCCCCFFFFFFFFCCCCA7
:1017B600CCCCCCCCCCCCCCCCCCCCCCCCCCCCC0C07B
:1017C600CCCCCCCCCCCCCCCCCCCCCFCFCCCCCCCC4D
:1017D600C0C0CCCCCCCCCCCCFFFFCCCCC0C0CCCC0D
:1017E600CCCCCCCCCCCCCCCCCCCCFFFFCCCCC0C0E5
:1017F600FFFFC0C0CCCCCCCCCCCCCCCCCCCCCCCCD5
:10180600CCCCCCCCCCCCCCCCCFCFCCCCCCCCCCCC0C
:10181600CCCCCCCCCCCCCCCCCCCCCCCCCCCCCCCC02
:0C182600CCCCCCCCC0C0CCCCCCCCCFCF38
:09211C00D290D291C291C290222E
:09212500C290C291D290D2912225
:071FAB00AD0712211C7F7835
:101FB200E4FEEF30E704D2918002C291D290C29047
:0F1FC200EF25E0FF0EEEB408E9D291D290C29065
:011FD10022ED
:0E203900EC24B0FF1220477F021220477F10D8
:10204700121FABE4FF121FB2AF05121FB202212508
:101FD200E475F001121D0AFE743225F0F5827414C4
:061FE2003EF583E493FFCD
:101FE800121FAB7F40121FB2AF05121FB20221258C
:0220AF00AC077C
:1020B100E4FBEB12203AE4FAAF04121FE80AEAB497
:0720C10080F60BEBB408EB05
:0120C80022F5
:101F7D00E4900036F0A3F0FC122039E4FB9000361B
:101F8D00E475F001121D0AFE742625F0F582740029
:0D1F9D00121FE20BEBB480E50CECB408DB86
:011FAA002214
:10205700D3EF9400EE940040147D657C18ED1D705D
:0D206700011CED4C70F7EF1F70E61E80E3CA
:012074002249
:1020E200EF1FAA0670011E4A600BE4FDEDC3947B4C
:0520F20050EE0D80F727
:0120F70022C6
:101DAC007F057E001220577FAE12203D7F4012200F
:101DBC00477FB01220477F811220477FFF122047B8
:101DCC007FA11220477FA61220477FA81220477FB1
:101DDC003F1220477FAD1220477F8B1220477F3365
:101DEC001220477FC81220477FD3122047E4FF12EE
:101DFC0020477FD51220477F801220477FD91220A1
:101E0C00477F1F1220477FDA1220477F121220478C
:0F1E1C007FDB1220477F401220477FAF02204715
:10207500E490002AF0A3F0FC122039E4FB90002A3A
:0D208500121FD20BEBB480F50CECB408EB8D
:01209200222B
:021BD400A9075F
:101BD600E9131313541F75F080A47C002DFFEC3518
:101BE600F0FE90002AF0A3EFF02401FFE43EA3F0FC
:101BF600A3EFF0E4A3F0A3F0122039E4FB90002E4B
:101C0600E0FEA3E0FF90002AE06E7003A3E06F60A1
:101C16001C90002EE0FEA3E0FF90002CE06E700307
:101C2600A3E06F600890002E121FD28047E904548B
:101C360007FF7401A807088002C333D8FCFFE954E4
:101C460007FE7401A806088002C333D8FC4FFF9034
:101C5600002EE0F8A3E02432F582741438F583E40C
:101C6600936FFF121FE890002FE004F070069000BB
:101C76002EE004F00BEB648070830CEC64086003C8
:031C8600021BFE40
:011C89002238
:021E8F00AC079E
:101E9100EC131313541F75F080A4FFED7A002FFF8C
:101EA100EA35F0FEEC5407FD7401A805088002C371
:101EB10033D8FCF5807401A805088002C333D8FC2F
:0F1EC100FD74322FF58274143EF583E4935DFFB8
:011ED00022EF
:0B1F0E00900030EBF0A3EAF0A3E9F034
:101F1900121C8AFF900033E0FBA3E0FAA3E0F91258
:101F29001C8AFE900030E0FBA3E0FAA3E0F9EE1270
:101F39001CA3900033E0FBA3E0FAA3E0F9EF021C35
:011F4900A3F4
:03000000021D20BE
:0C1D2000787FE4F6D8FD758120021D6775
:101C8A00BB010689828A83E0225002E722BBFE0258
:091C9A00E32289828A83E493228B
:101CA300BB010689828A83F0225002F722BBFE0120
:021CB300F3221A
:101CB500BC000BBE0029EF8DF084FFADF022E4CC13
:101CC500F875F008EF2FFFEE33FEEC33FCEE9DECDC
:101CD500984005FCEE9DFE0FD5F0E9E4CEFD22ED22
:101CE500F8F5F0EE8420D21CFEADF075F008EF2F6C
:101CF500FFED33FD4007985006D5F0F222C398FD5D
:051D05000FD5F0EA22F9
:101D0A00A3F8E0C5F025F0F0E5821582700215838C
:061D1A00E0C838F0E822E9
:101D2C00021E2BE493A3F8E493A34003F68001F284
:101D3C0008DFF48029E493A3F85407240CC8C333B8
:101D4C00C4540F4420C8834004F456800146F6DF87
:101D5C00E4800B0102040810204080901ED1E47E28
:101D6C00019360BCA3FF543F30E509541FFEE4937C
:101D7C00A360010ECF54C025E060A840B8E493A343
:101D8C00FAE493A3F8E493A3C8C582C8CAC583CA6E
:101D9C00F0A3C8C582C8CAC583CADFE9DEE780BE26
:011F0D0000D3
:00000001FF
